{
  "_format": "hh-sol-artifact-1",
  "contractName": "blochealth",
  "sourceName": "contracts/blochealth.sol",
  "abi": [
    {
      "inputs": [],
      "stateMutability": "nonpayable",
      "type": "constructor"
    },
    {
      "inputs": [
        {
          "internalType": "string",
          "name": "_id",
          "type": "string"
        }
      ],
      "name": "deleteHealthRecord",
      "outputs": [],
      "stateMutability": "nonpayable",
      "type": "function"
    },
    {
      "inputs": [],
      "name": "getAllHealthRecords",
      "outputs": [
        {
          "components": [
            {
              "internalType": "string",
              "name": "code",
              "type": "string"
            },
            {
              "internalType": "string",
              "name": "diagnosis",
              "type": "string"
            },
            {
              "internalType": "string",
              "name": "examination",
              "type": "string"
            },
            {
              "internalType": "string",
              "name": "organizationId",
              "type": "string"
            },
            {
              "internalType": "string",
              "name": "patientId",
              "type": "string"
            },
            {
              "internalType": "uint256",
              "name": "creationTime",
              "type": "uint256"
            },
            {
              "internalType": "string",
              "name": "id",
              "type": "string"
            }
          ],
          "internalType": "struct blochealth.HealthRecord[]",
          "name": "",
          "type": "tuple[]"
        }
      ],
      "stateMutability": "view",
      "type": "function"
    },
    {
      "inputs": [
        {
          "internalType": "string",
          "name": "id",
          "type": "string"
        }
      ],
      "name": "getHealthRecord",
      "outputs": [
        {
          "internalType": "string",
          "name": "",
          "type": "string"
        },
        {
          "internalType": "string",
          "name": "",
          "type": "string"
        },
        {
          "internalType": "string",
          "name": "",
          "type": "string"
        },
        {
          "internalType": "string",
          "name": "",
          "type": "string"
        },
        {
          "internalType": "string",
          "name": "",
          "type": "string"
        },
        {
          "internalType": "uint256",
          "name": "",
          "type": "uint256"
        },
        {
          "internalType": "string",
          "name": "",
          "type": "string"
        }
      ],
      "stateMutability": "view",
      "type": "function"
    },
    {
      "inputs": [
        {
          "internalType": "uint256",
          "name": "",
          "type": "uint256"
        }
      ],
      "name": "healthRecordArray",
      "outputs": [
        {
          "internalType": "string",
          "name": "code",
          "type": "string"
        },
        {
          "internalType": "string",
          "name": "diagnosis",
          "type": "string"
        },
        {
          "internalType": "string",
          "name": "examination",
          "type": "string"
        },
        {
          "internalType": "string",
          "name": "organizationId",
          "type": "string"
        },
        {
          "internalType": "string",
          "name": "patientId",
          "type": "string"
        },
        {
          "internalType": "uint256",
          "name": "creationTime",
          "type": "uint256"
        },
        {
          "internalType": "string",
          "name": "id",
          "type": "string"
        }
      ],
      "stateMutability": "view",
      "type": "function"
    },
    {
      "inputs": [
        {
          "internalType": "uint256",
          "name": "",
          "type": "uint256"
        }
      ],
      "name": "healthRecords",
      "outputs": [
        {
          "internalType": "string",
          "name": "code",
          "type": "string"
        },
        {
          "internalType": "string",
          "name": "diagnosis",
          "type": "string"
        },
        {
          "internalType": "string",
          "name": "examination",
          "type": "string"
        },
        {
          "internalType": "string",
          "name": "organizationId",
          "type": "string"
        },
        {
          "internalType": "string",
          "name": "patientId",
          "type": "string"
        },
        {
          "internalType": "uint256",
          "name": "creationTime",
          "type": "uint256"
        },
        {
          "internalType": "string",
          "name": "id",
          "type": "string"
        }
      ],
      "stateMutability": "view",
      "type": "function"
    },
    {
      "inputs": [],
      "name": "removeMe",
      "outputs": [
        {
          "internalType": "string",
          "name": "code",
          "type": "string"
        },
        {
          "internalType": "string",
          "name": "diagnosis",
          "type": "string"
        },
        {
          "internalType": "string",
          "name": "examination",
          "type": "string"
        },
        {
          "internalType": "string",
          "name": "organizationId",
          "type": "string"
        },
        {
          "internalType": "string",
          "name": "patientId",
          "type": "string"
        },
        {
          "internalType": "uint256",
          "name": "creationTime",
          "type": "uint256"
        },
        {
          "internalType": "string",
          "name": "id",
          "type": "string"
        }
      ],
      "stateMutability": "view",
      "type": "function"
    },
    {
      "inputs": [
        {
          "internalType": "string",
          "name": "_code",
          "type": "string"
        },
        {
          "internalType": "string",
          "name": "_diagnosis",
          "type": "string"
        },
        {
          "internalType": "string",
          "name": "_examination",
          "type": "string"
        },
        {
          "internalType": "string",
          "name": "_organizationId",
          "type": "string"
        },
        {
          "internalType": "string",
          "name": "_patientId",
          "type": "string"
        },
        {
          "internalType": "uint256",
          "name": "_creationTime",
          "type": "uint256"
        },
        {
          "internalType": "string",
          "name": "_id",
          "type": "string"
        }
      ],
      "name": "setHealthRecord",
      "outputs": [],
      "stateMutability": "nonpayable",
      "type": "function"
    },
    {
      "inputs": [
        {
          "internalType": "string",
          "name": "_code",
          "type": "string"
        },
        {
          "internalType": "string",
          "name": "_diagnosis",
          "type": "string"
        },
        {
          "internalType": "string",
          "name": "_examination",
          "type": "string"
        },
        {
          "internalType": "string",
          "name": "_organizationId",
          "type": "string"
        },
        {
          "internalType": "string",
          "name": "_patientId",
          "type": "string"
        },
        {
          "internalType": "uint256",
          "name": "_creationTime",
          "type": "uint256"
        },
        {
          "internalType": "string",
          "name": "_id",
          "type": "string"
        }
      ],
      "name": "updateHealthRecord",
      "outputs": [],
      "stateMutability": "nonpayable",
      "type": "function"
    }
  ],
  "bytecode": "0x608060405234801561001057600080fd5b50336000806101000a81548173ffffffffffffffffffffffffffffffffffffffff021916908373ffffffffffffffffffffffffffffffffffffffff160217905550612a41806100606000396000f3fe608060405234801561001057600080fd5b50600436106100885760003560e01c806382e3e7ef1161005b57806382e3e7ef146100ff5780639d08f4a914610135578063b3eb9e0f14610159578063b665c0d31461018f57610088565b80631c1514791461008d5780633ab6f443146100ab578063707301e9146100c75780637b2f6bbe146100e3575b600080fd5b6100956101c5565b6040516100a291906122ed565b60405180910390f35b6100c560048036038101906100c09190612484565b61059a565b005b6100e160048036038101906100dc9190612484565b61081a565b005b6100fd60048036038101906100f891906125ce565b610ad0565b005b610119600480360381019061011491906125ce565b610fa8565b60405161012c9796959493929190612670565b60405180910390f35b61013d6114f6565b6040516101509796959493929190612670565b60405180910390f35b610173600480360381019061016e9190612709565b611856565b6040516101869796959493929190612670565b60405180910390f35b6101a960048036038101906101a49190612709565b611bd8565b6040516101bc9796959493929190612670565b60405180910390f35b60606009805480602002602001604051908101604052809291908181526020016000905b8282101561059157838290600052602060002090600702016040518060e001604052908160008201805461021c90612765565b80601f016020809104026020016040519081016040528092919081815260200182805461024890612765565b80156102955780601f1061026a57610100808354040283529160200191610295565b820191906000526020600020905b81548152906001019060200180831161027857829003601f168201915b505050505081526020016001820180546102ae90612765565b80601f01602080910402602001604051908101604052809291908181526020018280546102da90612765565b80156103275780601f106102fc57610100808354040283529160200191610327565b820191906000526020600020905b81548152906001019060200180831161030a57829003601f168201915b5050505050815260200160028201805461034090612765565b80601f016020809104026020016040519081016040528092919081815260200182805461036c90612765565b80156103b95780601f1061038e576101008083540402835291602001916103b9565b820191906000526020600020905b81548152906001019060200180831161039c57829003601f168201915b505050505081526020016003820180546103d290612765565b80601f01602080910402602001604051908101604052809291908181526020018280546103fe90612765565b801561044b5780601f106104205761010080835404028352916020019161044b565b820191906000526020600020905b81548152906001019060200180831161042e57829003601f168201915b5050505050815260200160048201805461046490612765565b80601f016020809104026020016040519081016040528092919081815260200182805461049090612765565b80156104dd5780601f106104b2576101008083540402835291602001916104dd565b820191906000526020600020905b8154815290600101906020018083116104c057829003601f168201915b505050505081526020016005820154815260200160068201805461050090612765565b80601f016020809104026020016040519081016040528092919081815260200182805461052c90612765565b80156105795780601f1061054e57610100808354040283529160200191610579565b820191906000526020600020905b81548152906001019060200180831161055c57829003601f168201915b505050505081525050815260200190600101906101e9565b50505050905090565b60008054906101000a900473ffffffffffffffffffffffffffffffffffffffff1673ffffffffffffffffffffffffffffffffffffffff163373ffffffffffffffffffffffffffffffffffffffff16146105f257600080fd5b60006040518060e0016040528089815260200188815260200187815260200186815260200185815260200184815260200183815250905080600860008581526020019081526020016000206000820151816000019080519060200190610659929190611f4a565b506020820151816001019080519060200190610676929190611f4a565b506040820151816002019080519060200190610693929190611f4a565b5060608201518160030190805190602001906106b0929190611f4a565b5060808201518160040190805190602001906106cd929190611f4a565b5060a0820151816005015560c08201518160060190805190602001906106f4929190611f4a565b5090505060096040518060e001604052808a81526020018981526020018881526020018781526020018681526020018581526020018481525090806001815401808255809150506001900390600052602060002090600702016000909190919091506000820151816000019080519060200190610772929190611f4a565b50602082015181600101908051906020019061078f929190611f4a565b5060408201518160020190805190602001906107ac929190611f4a565b5060608201518160030190805190602001906107c9929190611f4a565b5060808201518160040190805190602001906107e6929190611f4a565b5060a0820151816005015560c082015181600601908051906020019061080d929190611f4a565b5050505050505050505050565b60008054906101000a900473ffffffffffffffffffffffffffffffffffffffff1673ffffffffffffffffffffffffffffffffffffffff163373ffffffffffffffffffffffffffffffffffffffff161461087257600080fd5b60005b600980549050811015610a94578160405160200161089391906127d3565b60405160208183030381529060405280519060200120600982815481106108bd576108bc6127ea565b5b90600052602060002090600702016006016040516020016108de91906128ad565b604051602081830303815290604052805190602001201415610a8157876009828154811061090f5761090e6127ea565b5b90600052602060002090600702016000019080519060200190610933929190611f4a565b508660098281548110610949576109486127ea565b5b9060005260206000209060070201600101908051906020019061096d929190611f4a565b508560098281548110610983576109826127ea565b5b906000526020600020906007020160020190805190602001906109a7929190611f4a565b5084600982815481106109bd576109bc6127ea565b5b906000526020600020906007020160030190805190602001906109e1929190611f4a565b5083600982815481106109f7576109f66127ea565b5b90600052602060002090600702016004019080519060200190610a1b929190611f4a565b508260098281548110610a3157610a306127ea565b5b9060005260206000209060070201600501819055508160098281548110610a5b57610a5a6127ea565b5b90600052602060002090600702016006019080519060200190610a7f929190611f4a565b505b8080610a8c906128f3565b915050610875565b506040517f08c379a0000000000000000000000000000000000000000000000000000000008152600401610ac790612988565b60405180910390fd5b60008054906101000a900473ffffffffffffffffffffffffffffffffffffffff1673ffffffffffffffffffffffffffffffffffffffff163373ffffffffffffffffffffffffffffffffffffffff1614610b2857600080fd5b60005b600980549050811015610f6c5781604051602001610b4991906127d3565b6040516020818303038152906040528051906020012060098281548110610b7357610b726127ea565b5b9060005260206000209060070201600601604051602001610b9491906128ad565b604051602081830303815290604052805190602001201415610f595760098181548110610bc457610bc36127ea565b5b906000526020600020906007020160016000820181600001908054610be890612765565b610bf3929190611fd0565b506001820181600101908054610c0890612765565b610c13929190611fd0565b506002820181600201908054610c2890612765565b610c33929190611fd0565b506003820181600301908054610c4890612765565b610c53929190611fd0565b506004820181600401908054610c6890612765565b610c73929190611fd0565b50600582015481600501556006820181600601908054610c9290612765565b610c9d929190611fd0565b5090505060096001600980549050610cb591906129a8565b81548110610cc657610cc56127ea565b5b906000526020600020906007020160098281548110610ce857610ce76127ea565b5b90600052602060002090600702016000820181600001908054610d0a90612765565b610d15929190611fd0565b506001820181600101908054610d2a90612765565b610d35929190611fd0565b506002820181600201908054610d4a90612765565b610d55929190611fd0565b506003820181600301908054610d6a90612765565b610d75929190611fd0565b506004820181600401908054610d8a90612765565b610d95929190611fd0565b50600582015481600501556006820181600601908054610db490612765565b610dbf929190611fd0565b50905050600160096001600980549050610dd991906129a8565b81548110610dea57610de96127ea565b5b90600052602060002090600702016000820181600001908054610e0c90612765565b610e17929190611fd0565b506001820181600101908054610e2c90612765565b610e37929190611fd0565b506002820181600201908054610e4c90612765565b610e57929190611fd0565b506003820181600301908054610e6c90612765565b610e77929190611fd0565b506004820181600401908054610e8c90612765565b610e97929190611fd0565b50600582015481600501556006820181600601908054610eb690612765565b610ec1929190611fd0565b509050506009805480610ed757610ed66129dc565b5b600190038181906000526020600020906007020160008082016000610efc919061205d565b600182016000610f0c919061205d565b600282016000610f1c919061205d565b600382016000610f2c919061205d565b600482016000610f3c919061205d565b6005820160009055600682016000610f54919061205d565b505090555b8080610f64906128f3565b915050610b2b565b506040517f08c379a0000000000000000000000000000000000000000000000000000000008152600401610f9f90612988565b60405180910390fd5b60608060608060606000606060005b6009805490508110156114af5788604051602001610fd591906127d3565b6040516020818303038152906040528051906020012060098281548110610fff57610ffe6127ea565b5b906000526020600020906007020160060160405160200161102091906128ad565b60405160208183030381529060405280519060200120141561149c57600981815481106110505761104f6127ea565b5b906000526020600020906007020160000160098281548110611075576110746127ea565b5b90600052602060002090600702016001016009838154811061109a576110996127ea565b5b9060005260206000209060070201600201600984815481106110bf576110be6127ea565b5b9060005260206000209060070201600301600985815481106110e4576110e36127ea565b5b906000526020600020906007020160040160098681548110611109576111086127ea565b5b9060005260206000209060070201600501546009878154811061112f5761112e6127ea565b5b906000526020600020906007020160060186805461114c90612765565b80601f016020809104026020016040519081016040528092919081815260200182805461117890612765565b80156111c55780601f1061119a576101008083540402835291602001916111c5565b820191906000526020600020905b8154815290600101906020018083116111a857829003601f168201915b505050505096508580546111d890612765565b80601f016020809104026020016040519081016040528092919081815260200182805461120490612765565b80156112515780601f1061122657610100808354040283529160200191611251565b820191906000526020600020905b81548152906001019060200180831161123457829003601f168201915b5050505050955084805461126490612765565b80601f016020809104026020016040519081016040528092919081815260200182805461129090612765565b80156112dd5780601f106112b2576101008083540402835291602001916112dd565b820191906000526020600020905b8154815290600101906020018083116112c057829003601f168201915b505050505094508380546112f090612765565b80601f016020809104026020016040519081016040528092919081815260200182805461131c90612765565b80156113695780601f1061133e57610100808354040283529160200191611369565b820191906000526020600020905b81548152906001019060200180831161134c57829003601f168201915b5050505050935082805461137c90612765565b80601f01602080910402602001604051908101604052809291908181526020018280546113a890612765565b80156113f55780601f106113ca576101008083540402835291602001916113f5565b820191906000526020600020905b8154815290600101906020018083116113d857829003601f168201915b5050505050925080805461140890612765565b80601f016020809104026020016040519081016040528092919081815260200182805461143490612765565b80156114815780601f1061145657610100808354040283529160200191611481565b820191906000526020600020905b81548152906001019060200180831161146457829003601f168201915b505050505090509750975097509750975097509750506114eb565b80806114a7906128f3565b915050610fb7565b506040517f08c379a00000000000000000000000000000000000000000000000000000000081526004016114e290612988565b60405180910390fd5b919395979092949650565b600180600001805461150790612765565b80601f016020809104026020016040519081016040528092919081815260200182805461153390612765565b80156115805780601f1061155557610100808354040283529160200191611580565b820191906000526020600020905b81548152906001019060200180831161156357829003601f168201915b50505050509080600101805461159590612765565b80601f01602080910402602001604051908101604052809291908181526020018280546115c190612765565b801561160e5780601f106115e35761010080835404028352916020019161160e565b820191906000526020600020905b8154815290600101906020018083116115f157829003601f168201915b50505050509080600201805461162390612765565b80601f016020809104026020016040519081016040528092919081815260200182805461164f90612765565b801561169c5780601f106116715761010080835404028352916020019161169c565b820191906000526020600020905b81548152906001019060200180831161167f57829003601f168201915b5050505050908060030180546116b190612765565b80601f01602080910402602001604051908101604052809291908181526020018280546116dd90612765565b801561172a5780601f106116ff5761010080835404028352916020019161172a565b820191906000526020600020905b81548152906001019060200180831161170d57829003601f168201915b50505050509080600401805461173f90612765565b80601f016020809104026020016040519081016040528092919081815260200182805461176b90612765565b80156117b85780601f1061178d576101008083540402835291602001916117b8565b820191906000526020600020905b81548152906001019060200180831161179b57829003601f168201915b5050505050908060050154908060060180546117d390612765565b80601f01602080910402602001604051908101604052809291908181526020018280546117ff90612765565b801561184c5780601f106118215761010080835404028352916020019161184c565b820191906000526020600020905b81548152906001019060200180831161182f57829003601f168201915b5050505050905087565b6009818154811061186657600080fd5b906000526020600020906007020160009150905080600001805461188990612765565b80601f01602080910402602001604051908101604052809291908181526020018280546118b590612765565b80156119025780601f106118d757610100808354040283529160200191611902565b820191906000526020600020905b8154815290600101906020018083116118e557829003601f168201915b50505050509080600101805461191790612765565b80601f016020809104026020016040519081016040528092919081815260200182805461194390612765565b80156119905780601f1061196557610100808354040283529160200191611990565b820191906000526020600020905b81548152906001019060200180831161197357829003601f168201915b5050505050908060020180546119a590612765565b80601f01602080910402602001604051908101604052809291908181526020018280546119d190612765565b8015611a1e5780601f106119f357610100808354040283529160200191611a1e565b820191906000526020600020905b815481529060010190602001808311611a0157829003601f168201915b505050505090806003018054611a3390612765565b80601f0160208091040260200160405190810160405280929190818152602001828054611a5f90612765565b8015611aac5780601f10611a8157610100808354040283529160200191611aac565b820191906000526020600020905b815481529060010190602001808311611a8f57829003601f168201915b505050505090806004018054611ac190612765565b80601f0160208091040260200160405190810160405280929190818152602001828054611aed90612765565b8015611b3a5780601f10611b0f57610100808354040283529160200191611b3a565b820191906000526020600020905b815481529060010190602001808311611b1d57829003601f168201915b505050505090806005015490806006018054611b5590612765565b80601f0160208091040260200160405190810160405280929190818152602001828054611b8190612765565b8015611bce5780601f10611ba357610100808354040283529160200191611bce565b820191906000526020600020905b815481529060010190602001808311611bb157829003601f168201915b5050505050905087565b6008602052806000526040600020600091509050806000018054611bfb90612765565b80601f0160208091040260200160405190810160405280929190818152602001828054611c2790612765565b8015611c745780601f10611c4957610100808354040283529160200191611c74565b820191906000526020600020905b815481529060010190602001808311611c5757829003601f168201915b505050505090806001018054611c8990612765565b80601f0160208091040260200160405190810160405280929190818152602001828054611cb590612765565b8015611d025780601f10611cd757610100808354040283529160200191611d02565b820191906000526020600020905b815481529060010190602001808311611ce557829003601f168201915b505050505090806002018054611d1790612765565b80601f0160208091040260200160405190810160405280929190818152602001828054611d4390612765565b8015611d905780601f10611d6557610100808354040283529160200191611d90565b820191906000526020600020905b815481529060010190602001808311611d7357829003601f168201915b505050505090806003018054611da590612765565b80601f0160208091040260200160405190810160405280929190818152602001828054611dd190612765565b8015611e1e5780601f10611df357610100808354040283529160200191611e1e565b820191906000526020600020905b815481529060010190602001808311611e0157829003601f168201915b505050505090806004018054611e3390612765565b80601f0160208091040260200160405190810160405280929190818152602001828054611e5f90612765565b8015611eac5780601f10611e8157610100808354040283529160200191611eac565b820191906000526020600020905b815481529060010190602001808311611e8f57829003601f168201915b505050505090806005015490806006018054611ec790612765565b80601f0160208091040260200160405190810160405280929190818152602001828054611ef390612765565b8015611f405780601f10611f1557610100808354040283529160200191611f40565b820191906000526020600020905b815481529060010190602001808311611f2357829003601f168201915b5050505050905087565b828054611f5690612765565b90600052602060002090601f016020900481019282611f785760008555611fbf565b82601f10611f9157805160ff1916838001178555611fbf565b82800160010185558215611fbf579182015b82811115611fbe578251825591602001919060010190611fa3565b5b509050611fcc919061209d565b5090565b828054611fdc90612765565b90600052602060002090601f016020900481019282611ffe576000855561204c565b82601f1061200f578054855561204c565b8280016001018555821561204c57600052602060002091601f016020900482015b8281111561204b578254825591600101919060010190612030565b5b509050612059919061209d565b5090565b50805461206990612765565b6000825580601f1061207b575061209a565b601f016020900490600052602060002090810190612099919061209d565b5b50565b5b808211156120b657600081600090555060010161209e565b5090565b600081519050919050565b600082825260208201905092915050565b6000819050602082019050919050565b600081519050919050565b600082825260208201905092915050565b60005b83811015612120578082015181840152602081019050612105565b8381111561212f576000848401525b50505050565b6000601f19601f8301169050919050565b6000612151826120e6565b61215b81856120f1565b935061216b818560208601612102565b61217481612135565b840191505092915050565b6000819050919050565b6121928161217f565b82525050565b600060e08301600083015184820360008601526121b58282612146565b915050602083015184820360208601526121cf8282612146565b915050604083015184820360408601526121e98282612146565b915050606083015184820360608601526122038282612146565b9150506080830151848203608086015261221d8282612146565b91505060a083015161223260a0860182612189565b5060c083015184820360c086015261224a8282612146565b9150508091505092915050565b60006122638383612198565b905092915050565b6000602082019050919050565b6000612283826120ba565b61228d81856120c5565b93508360208202850161229f856120d6565b8060005b858110156122db57848403895281516122bc8582612257565b94506122c78361226b565b925060208a019950506001810190506122a3565b50829750879550505050505092915050565b600060208201905081810360008301526123078184612278565b905092915050565b6000604051905090565b600080fd5b600080fd5b600080fd5b600080fd5b7f4e487b7100000000000000000000000000000000000000000000000000000000600052604160045260246000fd5b61236582612135565b810181811067ffffffffffffffff821117156123845761238361232d565b5b80604052505050565b600061239761230f565b90506123a3828261235c565b919050565b600067ffffffffffffffff8211156123c3576123c261232d565b5b6123cc82612135565b9050602081019050919050565b82818337600083830152505050565b60006123fb6123f6846123a8565b61238d565b90508281526020810184848401111561241757612416612328565b5b6124228482856123d9565b509392505050565b600082601f83011261243f5761243e612323565b5b813561244f8482602086016123e8565b91505092915050565b6124618161217f565b811461246c57600080fd5b50565b60008135905061247e81612458565b92915050565b600080600080600080600060e0888a0312156124a3576124a2612319565b5b600088013567ffffffffffffffff8111156124c1576124c061231e565b5b6124cd8a828b0161242a565b975050602088013567ffffffffffffffff8111156124ee576124ed61231e565b5b6124fa8a828b0161242a565b965050604088013567ffffffffffffffff81111561251b5761251a61231e565b5b6125278a828b0161242a565b955050606088013567ffffffffffffffff8111156125485761254761231e565b5b6125548a828b0161242a565b945050608088013567ffffffffffffffff8111156125755761257461231e565b5b6125818a828b0161242a565b93505060a06125928a828b0161246f565b92505060c088013567ffffffffffffffff8111156125b3576125b261231e565b5b6125bf8a828b0161242a565b91505092959891949750929550565b6000602082840312156125e4576125e3612319565b5b600082013567ffffffffffffffff8111156126025761260161231e565b5b61260e8482850161242a565b91505092915050565b600082825260208201905092915050565b6000612633826120e6565b61263d8185612617565b935061264d818560208601612102565b61265681612135565b840191505092915050565b61266a8161217f565b82525050565b600060e082019050818103600083015261268a818a612628565b9050818103602083015261269e8189612628565b905081810360408301526126b28188612628565b905081810360608301526126c68187612628565b905081810360808301526126da8186612628565b90506126e960a0830185612661565b81810360c08301526126fb8184612628565b905098975050505050505050565b60006020828403121561271f5761271e612319565b5b600061272d8482850161246f565b91505092915050565b7f4e487b7100000000000000000000000000000000000000000000000000000000600052602260045260246000fd5b6000600282049050600182168061277d57607f821691505b6020821081141561279157612790612736565b5b50919050565b600081905092915050565b60006127ad826120e6565b6127b78185612797565b93506127c7818560208601612102565b80840191505092915050565b60006127df82846127a2565b915081905092915050565b7f4e487b7100000000000000000000000000000000000000000000000000000000600052603260045260246000fd5b60008190508160005260206000209050919050565b6000815461283b81612765565b6128458186612797565b945060018216600081146128605760018114612871576128a4565b60ff198316865281860193506128a4565b61287a85612819565b60005b8381101561289c5781548189015260018201915060208101905061287d565b838801955050505b50505092915050565b60006128b9828461282e565b915081905092915050565b7f4e487b7100000000000000000000000000000000000000000000000000000000600052601160045260246000fd5b60006128fe8261217f565b91507fffffffffffffffffffffffffffffffffffffffffffffffffffffffffffffffff821415612931576129306128c4565b5b600182019050919050565b7f4865616c7468205265636f7264206e6f7420666f756e64000000000000000000600082015250565b6000612972601783612617565b915061297d8261293c565b602082019050919050565b600060208201905081810360008301526129a181612965565b9050919050565b60006129b38261217f565b91506129be8361217f565b9250828210156129d1576129d06128c4565b5b828203905092915050565b7f4e487b7100000000000000000000000000000000000000000000000000000000600052603160045260246000fdfea2646970667358221220da6ee0f9c7fd97e92aaddbf0917af212ee3c173000a496df553410e2cfb8b63864736f6c634300080b0033",
  "linkReferences": {},
  "deployedLinkReferences": {}
}