{
  "_format": "hh-sol-artifact-1",
  "contractName": "blochealth",
  "sourceName": "contracts/blochealth.sol",
  "abi": [
    {
      "inputs": [],
      "stateMutability": "nonpayable",
      "type": "constructor"
    },
    {
      "inputs": [
        {
          "internalType": "uint256",
          "name": "_id",
          "type": "uint256"
        }
      ],
      "name": "deleteHealthRecord",
      "outputs": [],
      "stateMutability": "nonpayable",
      "type": "function"
    },
    {
      "inputs": [],
      "name": "getAllHealthRecords",
      "outputs": [
        {
          "components": [
            {
              "internalType": "uint256",
              "name": "id",
              "type": "uint256"
            },
            {
              "internalType": "string",
              "name": "initialExamination",
              "type": "string"
            },
            {
              "internalType": "string",
              "name": "diagnosis",
              "type": "string"
            },
            {
              "internalType": "string",
              "name": "evidence",
              "type": "string"
            },
            {
              "internalType": "string",
              "name": "treatment",
              "type": "string"
            },
            {
              "internalType": "string",
              "name": "medication",
              "type": "string"
            },
            {
              "internalType": "string",
              "name": "comment",
              "type": "string"
            },
            {
              "internalType": "uint256",
              "name": "date",
              "type": "uint256"
            }
          ],
          "internalType": "struct blochealth.HealthRecord[]",
          "name": "",
          "type": "tuple[]"
        }
      ],
      "stateMutability": "view",
      "type": "function"
    },
    {
      "inputs": [
        {
          "internalType": "uint256",
          "name": "_id",
          "type": "uint256"
        }
      ],
      "name": "getHealthRecord",
      "outputs": [
        {
          "internalType": "uint256",
          "name": "",
          "type": "uint256"
        },
        {
          "internalType": "string",
          "name": "",
          "type": "string"
        },
        {
          "internalType": "string",
          "name": "",
          "type": "string"
        },
        {
          "internalType": "string",
          "name": "",
          "type": "string"
        },
        {
          "internalType": "string",
          "name": "",
          "type": "string"
        },
        {
          "internalType": "string",
          "name": "",
          "type": "string"
        },
        {
          "internalType": "string",
          "name": "",
          "type": "string"
        },
        {
          "internalType": "uint256",
          "name": "",
          "type": "uint256"
        }
      ],
      "stateMutability": "view",
      "type": "function"
    },
    {
      "inputs": [
        {
          "internalType": "uint256",
          "name": "",
          "type": "uint256"
        }
      ],
      "name": "healthRecordArray",
      "outputs": [
        {
          "internalType": "uint256",
          "name": "id",
          "type": "uint256"
        },
        {
          "internalType": "string",
          "name": "initialExamination",
          "type": "string"
        },
        {
          "internalType": "string",
          "name": "diagnosis",
          "type": "string"
        },
        {
          "internalType": "string",
          "name": "evidence",
          "type": "string"
        },
        {
          "internalType": "string",
          "name": "treatment",
          "type": "string"
        },
        {
          "internalType": "string",
          "name": "medication",
          "type": "string"
        },
        {
          "internalType": "string",
          "name": "comment",
          "type": "string"
        },
        {
          "internalType": "uint256",
          "name": "date",
          "type": "uint256"
        }
      ],
      "stateMutability": "view",
      "type": "function"
    },
    {
      "inputs": [
        {
          "internalType": "uint256",
          "name": "",
          "type": "uint256"
        }
      ],
      "name": "healthRecords",
      "outputs": [
        {
          "internalType": "uint256",
          "name": "id",
          "type": "uint256"
        },
        {
          "internalType": "string",
          "name": "initialExamination",
          "type": "string"
        },
        {
          "internalType": "string",
          "name": "diagnosis",
          "type": "string"
        },
        {
          "internalType": "string",
          "name": "evidence",
          "type": "string"
        },
        {
          "internalType": "string",
          "name": "treatment",
          "type": "string"
        },
        {
          "internalType": "string",
          "name": "medication",
          "type": "string"
        },
        {
          "internalType": "string",
          "name": "comment",
          "type": "string"
        },
        {
          "internalType": "uint256",
          "name": "date",
          "type": "uint256"
        }
      ],
      "stateMutability": "view",
      "type": "function"
    },
    {
      "inputs": [],
      "name": "removeMe",
      "outputs": [
        {
          "internalType": "uint256",
          "name": "id",
          "type": "uint256"
        },
        {
          "internalType": "string",
          "name": "initialExamination",
          "type": "string"
        },
        {
          "internalType": "string",
          "name": "diagnosis",
          "type": "string"
        },
        {
          "internalType": "string",
          "name": "evidence",
          "type": "string"
        },
        {
          "internalType": "string",
          "name": "treatment",
          "type": "string"
        },
        {
          "internalType": "string",
          "name": "medication",
          "type": "string"
        },
        {
          "internalType": "string",
          "name": "comment",
          "type": "string"
        },
        {
          "internalType": "uint256",
          "name": "date",
          "type": "uint256"
        }
      ],
      "stateMutability": "view",
      "type": "function"
    },
    {
      "inputs": [
        {
          "internalType": "uint256",
          "name": "_id",
          "type": "uint256"
        },
        {
          "internalType": "string",
          "name": "_initialExamination",
          "type": "string"
        },
        {
          "internalType": "string",
          "name": "_diagnosis",
          "type": "string"
        },
        {
          "internalType": "string",
          "name": "_evidence",
          "type": "string"
        },
        {
          "internalType": "string",
          "name": "_treatment",
          "type": "string"
        },
        {
          "internalType": "string",
          "name": "_medication",
          "type": "string"
        },
        {
          "internalType": "string",
          "name": "_comment",
          "type": "string"
        },
        {
          "internalType": "uint256",
          "name": "_date",
          "type": "uint256"
        }
      ],
      "name": "setHealthRecord",
      "outputs": [],
      "stateMutability": "nonpayable",
      "type": "function"
    },
    {
      "inputs": [
        {
          "internalType": "uint256",
          "name": "_id",
          "type": "uint256"
        },
        {
          "internalType": "string",
          "name": "_initialExamination",
          "type": "string"
        },
        {
          "internalType": "string",
          "name": "_diagnosis",
          "type": "string"
        },
        {
          "internalType": "string",
          "name": "_evidence",
          "type": "string"
        },
        {
          "internalType": "string",
          "name": "_treatment",
          "type": "string"
        },
        {
          "internalType": "string",
          "name": "_medication",
          "type": "string"
        },
        {
          "internalType": "string",
          "name": "_comment",
          "type": "string"
        },
        {
          "internalType": "uint256",
          "name": "_date",
          "type": "uint256"
        }
      ],
      "name": "updateHealthRecord",
      "outputs": [],
      "stateMutability": "nonpayable",
      "type": "function"
    }
  ],
  "bytecode": "0x608060405234801561001057600080fd5b50336000806101000a81548173ffffffffffffffffffffffffffffffffffffffff021916908373ffffffffffffffffffffffffffffffffffffffff160217905550612941806100606000396000f3fe608060405234801561001057600080fd5b50600436106100885760003560e01c80639d08f4a91161005b5780639d08f4a91461011a578063b3eb9e0f1461013f578063b665c0d314610176578063d5ff8001146101ad57610088565b806303d39b2f1461008d5780631c151479146100a9578063839e8762146100c75780638b341ee5146100fe575b600080fd5b6100a760048036038101906100a2919061225a565b6101c9565b005b6100b161046c565b6040516100be91906125e4565b60405180910390f35b6100e160048036038101906100dc9190612606565b61084c565b6040516100f598979695949392919061268c565b60405180910390f35b6101186004803603810190610113919061225a565b610c99565b005b610122610f99565b60405161013698979695949392919061268c565b60405180910390f35b61015960048036038101906101549190612606565b6112ff565b60405161016d98979695949392919061268c565b60405180910390f35b610190600480360381019061018b9190612606565b611687565b6040516101a498979695949392919061268c565b60405180910390f35b6101c760048036038101906101c29190612606565b6119ff565b005b60008054906101000a900473ffffffffffffffffffffffffffffffffffffffff1673ffffffffffffffffffffffffffffffffffffffff163373ffffffffffffffffffffffffffffffffffffffff161461022157600080fd5b60006040518061010001604052808a815260200189815260200188815260200187815260200186815260200185815260200184815260200183815250905080600960008b8152602001908152602001600020600082015181600001556020820151816001019080519060200190610299929190611f5a565b5060408201518160020190805190602001906102b6929190611f5a565b5060608201518160030190805190602001906102d3929190611f5a565b5060808201518160040190805190602001906102f0929190611f5a565b5060a082015181600501908051906020019061030d929190611f5a565b5060c082015181600601908051906020019061032a929190611f5a565b5060e08201518160070155905050600a6040518061010001604052808b81526020018a81526020018981526020018881526020018781526020018681526020018581526020018481525090806001815401808255809150506001900390600052602060002090600802016000909190919091506000820151816000015560208201518160010190805190602001906103c3929190611f5a565b5060408201518160020190805190602001906103e0929190611f5a565b5060608201518160030190805190602001906103fd929190611f5a565b50608082015181600401908051906020019061041a929190611f5a565b5060a0820151816005019080519060200190610437929190611f5a565b5060c0820151816006019080519060200190610454929190611f5a565b5060e082015181600701555050505050505050505050565b6060600a805480602002602001604051908101604052809291908181526020016000905b82821015610843578382906000526020600020906008020160405180610100016040529081600082015481526020016001820180546104ce90612763565b80601f01602080910402602001604051908101604052809291908181526020018280546104fa90612763565b80156105475780601f1061051c57610100808354040283529160200191610547565b820191906000526020600020905b81548152906001019060200180831161052a57829003601f168201915b5050505050815260200160028201805461056090612763565b80601f016020809104026020016040519081016040528092919081815260200182805461058c90612763565b80156105d95780601f106105ae576101008083540402835291602001916105d9565b820191906000526020600020905b8154815290600101906020018083116105bc57829003601f168201915b505050505081526020016003820180546105f290612763565b80601f016020809104026020016040519081016040528092919081815260200182805461061e90612763565b801561066b5780601f106106405761010080835404028352916020019161066b565b820191906000526020600020905b81548152906001019060200180831161064e57829003601f168201915b5050505050815260200160048201805461068490612763565b80601f01602080910402602001604051908101604052809291908181526020018280546106b090612763565b80156106fd5780601f106106d2576101008083540402835291602001916106fd565b820191906000526020600020905b8154815290600101906020018083116106e057829003601f168201915b5050505050815260200160058201805461071690612763565b80601f016020809104026020016040519081016040528092919081815260200182805461074290612763565b801561078f5780601f106107645761010080835404028352916020019161078f565b820191906000526020600020905b81548152906001019060200180831161077257829003601f168201915b505050505081526020016006820180546107a890612763565b80601f01602080910402602001604051908101604052809291908181526020018280546107d490612763565b80156108215780601f106107f657610100808354040283529160200191610821565b820191906000526020600020905b81548152906001019060200180831161080457829003601f168201915b5050505050815260200160078201548152505081526020019060010190610490565b50505050905090565b6000606080606080606080600080600960008b81526020019081526020016000206000015414156108b2576040517f08c379a00000000000000000000000000000000000000000000000000000000081526004016108a9906127e1565b60405180910390fd5b6000600960008b815260200190815260200160002060405180610100016040529081600082015481526020016001820180546108ed90612763565b80601f016020809104026020016040519081016040528092919081815260200182805461091990612763565b80156109665780601f1061093b57610100808354040283529160200191610966565b820191906000526020600020905b81548152906001019060200180831161094957829003601f168201915b5050505050815260200160028201805461097f90612763565b80601f01602080910402602001604051908101604052809291908181526020018280546109ab90612763565b80156109f85780601f106109cd576101008083540402835291602001916109f8565b820191906000526020600020905b8154815290600101906020018083116109db57829003601f168201915b50505050508152602001600382018054610a1190612763565b80601f0160208091040260200160405190810160405280929190818152602001828054610a3d90612763565b8015610a8a5780601f10610a5f57610100808354040283529160200191610a8a565b820191906000526020600020905b815481529060010190602001808311610a6d57829003601f168201915b50505050508152602001600482018054610aa390612763565b80601f0160208091040260200160405190810160405280929190818152602001828054610acf90612763565b8015610b1c5780601f10610af157610100808354040283529160200191610b1c565b820191906000526020600020905b815481529060010190602001808311610aff57829003601f168201915b50505050508152602001600582018054610b3590612763565b80601f0160208091040260200160405190810160405280929190818152602001828054610b6190612763565b8015610bae5780601f10610b8357610100808354040283529160200191610bae565b820191906000526020600020905b815481529060010190602001808311610b9157829003601f168201915b50505050508152602001600682018054610bc790612763565b80601f0160208091040260200160405190810160405280929190818152602001828054610bf390612763565b8015610c405780601f10610c1557610100808354040283529160200191610c40565b820191906000526020600020905b815481529060010190602001808311610c2357829003601f168201915b505050505081526020016007820154815250509050806000015181602001518260400151836060015184608001518560a001518660c001518760e001519850985098509850985098509850985050919395975091939597565b60008054906101000a900473ffffffffffffffffffffffffffffffffffffffff1673ffffffffffffffffffffffffffffffffffffffff163373ffffffffffffffffffffffffffffffffffffffff1614610cf157600080fd5b6000600960008a8152602001908152602001600020600001541415610d4b576040517f08c379a0000000000000000000000000000000000000000000000000000000008152600401610d42906127e1565b60405180910390fd5b610d54886119ff565b60405180610100016040528089815260200188815260200187815260200186815260200185815260200184815260200183815260200182815250600960008a8152602001908152602001600020600082015181600001556020820151816001019080519060200190610dc7929190611f5a565b506040820151816002019080519060200190610de4929190611f5a565b506060820151816003019080519060200190610e01929190611f5a565b506080820151816004019080519060200190610e1e929190611f5a565b5060a0820151816005019080519060200190610e3b929190611f5a565b5060c0820151816006019080519060200190610e58929190611f5a565b5060e08201518160070155905050600a6040518061010001604052808a8152602001898152602001888152602001878152602001868152602001858152602001848152602001838152509080600181540180825580915050600190039060005260206000209060080201600090919091909150600082015181600001556020820151816001019080519060200190610ef1929190611f5a565b506040820151816002019080519060200190610f0e929190611f5a565b506060820151816003019080519060200190610f2b929190611f5a565b506080820151816004019080519060200190610f48929190611f5a565b5060a0820151816005019080519060200190610f65929190611f5a565b5060c0820151816006019080519060200190610f82929190611f5a565b5060e0820151816007015550505050505050505050565b6001806000015490806001018054610fb090612763565b80601f0160208091040260200160405190810160405280929190818152602001828054610fdc90612763565b80156110295780601f10610ffe57610100808354040283529160200191611029565b820191906000526020600020905b81548152906001019060200180831161100c57829003601f168201915b50505050509080600201805461103e90612763565b80601f016020809104026020016040519081016040528092919081815260200182805461106a90612763565b80156110b75780601f1061108c576101008083540402835291602001916110b7565b820191906000526020600020905b81548152906001019060200180831161109a57829003601f168201915b5050505050908060030180546110cc90612763565b80601f01602080910402602001604051908101604052809291908181526020018280546110f890612763565b80156111455780601f1061111a57610100808354040283529160200191611145565b820191906000526020600020905b81548152906001019060200180831161112857829003601f168201915b50505050509080600401805461115a90612763565b80601f016020809104026020016040519081016040528092919081815260200182805461118690612763565b80156111d35780601f106111a8576101008083540402835291602001916111d3565b820191906000526020600020905b8154815290600101906020018083116111b657829003601f168201915b5050505050908060050180546111e890612763565b80601f016020809104026020016040519081016040528092919081815260200182805461121490612763565b80156112615780601f1061123657610100808354040283529160200191611261565b820191906000526020600020905b81548152906001019060200180831161124457829003601f168201915b50505050509080600601805461127690612763565b80601f01602080910402602001604051908101604052809291908181526020018280546112a290612763565b80156112ef5780601f106112c4576101008083540402835291602001916112ef565b820191906000526020600020905b8154815290600101906020018083116112d257829003601f168201915b5050505050908060070154905088565b600a818154811061130f57600080fd5b906000526020600020906008020160009150905080600001549080600101805461133890612763565b80601f016020809104026020016040519081016040528092919081815260200182805461136490612763565b80156113b15780601f10611386576101008083540402835291602001916113b1565b820191906000526020600020905b81548152906001019060200180831161139457829003601f168201915b5050505050908060020180546113c690612763565b80601f01602080910402602001604051908101604052809291908181526020018280546113f290612763565b801561143f5780601f106114145761010080835404028352916020019161143f565b820191906000526020600020905b81548152906001019060200180831161142257829003601f168201915b50505050509080600301805461145490612763565b80601f016020809104026020016040519081016040528092919081815260200182805461148090612763565b80156114cd5780601f106114a2576101008083540402835291602001916114cd565b820191906000526020600020905b8154815290600101906020018083116114b057829003601f168201915b5050505050908060040180546114e290612763565b80601f016020809104026020016040519081016040528092919081815260200182805461150e90612763565b801561155b5780601f106115305761010080835404028352916020019161155b565b820191906000526020600020905b81548152906001019060200180831161153e57829003601f168201915b50505050509080600501805461157090612763565b80601f016020809104026020016040519081016040528092919081815260200182805461159c90612763565b80156115e95780601f106115be576101008083540402835291602001916115e9565b820191906000526020600020905b8154815290600101906020018083116115cc57829003601f168201915b5050505050908060060180546115fe90612763565b80601f016020809104026020016040519081016040528092919081815260200182805461162a90612763565b80156116775780601f1061164c57610100808354040283529160200191611677565b820191906000526020600020905b81548152906001019060200180831161165a57829003601f168201915b5050505050908060070154905088565b60096020528060005260406000206000915090508060000154908060010180546116b090612763565b80601f01602080910402602001604051908101604052809291908181526020018280546116dc90612763565b80156117295780601f106116fe57610100808354040283529160200191611729565b820191906000526020600020905b81548152906001019060200180831161170c57829003601f168201915b50505050509080600201805461173e90612763565b80601f016020809104026020016040519081016040528092919081815260200182805461176a90612763565b80156117b75780601f1061178c576101008083540402835291602001916117b7565b820191906000526020600020905b81548152906001019060200180831161179a57829003601f168201915b5050505050908060030180546117cc90612763565b80601f01602080910402602001604051908101604052809291908181526020018280546117f890612763565b80156118455780601f1061181a57610100808354040283529160200191611845565b820191906000526020600020905b81548152906001019060200180831161182857829003601f168201915b50505050509080600401805461185a90612763565b80601f016020809104026020016040519081016040528092919081815260200182805461188690612763565b80156118d35780601f106118a8576101008083540402835291602001916118d3565b820191906000526020600020905b8154815290600101906020018083116118b657829003601f168201915b5050505050908060050180546118e890612763565b80601f016020809104026020016040519081016040528092919081815260200182805461191490612763565b80156119615780601f1061193657610100808354040283529160200191611961565b820191906000526020600020905b81548152906001019060200180831161194457829003601f168201915b50505050509080600601805461197690612763565b80601f01602080910402602001604051908101604052809291908181526020018280546119a290612763565b80156119ef5780601f106119c4576101008083540402835291602001916119ef565b820191906000526020600020905b8154815290600101906020018083116119d257829003601f168201915b5050505050908060070154905088565b60008054906101000a900473ffffffffffffffffffffffffffffffffffffffff1673ffffffffffffffffffffffffffffffffffffffff163373ffffffffffffffffffffffffffffffffffffffff1614611a5757600080fd5b600060096000838152602001908152602001600020600001541415611ab1576040517f08c379a0000000000000000000000000000000000000000000000000000000008152600401611aa8906127e1565b60405180910390fd5b60096000828152602001908152602001600020600080820160009055600182016000611add9190611fe0565b600282016000611aed9190611fe0565b600382016000611afd9190611fe0565b600482016000611b0d9190611fe0565b600582016000611b1d9190611fe0565b600682016000611b2d9190611fe0565b6007820160009055505060005b600a80549050811015611ebb5781600a8281548110611b5c57611b5b612801565b5b9060005260206000209060080201600001541415611ea857600a8181548110611b8857611b87612801565b5b90600052602060002090600802016001600082015481600001556001820181600101908054611bb690612763565b611bc1929190612020565b506002820181600201908054611bd690612763565b611be1929190612020565b506003820181600301908054611bf690612763565b611c01929190612020565b506004820181600401908054611c1690612763565b611c21929190612020565b506005820181600501908054611c3690612763565b611c41929190612020565b506006820181600601908054611c5690612763565b611c61929190612020565b5060078201548160070155905050600a6001600a80549050611c83919061285f565b81548110611c9457611c93612801565b5b9060005260206000209060080201600a8281548110611cb657611cb5612801565b5b9060005260206000209060080201600082015481600001556001820181600101908054611ce290612763565b611ced929190612020565b506002820181600201908054611d0290612763565b611d0d929190612020565b506003820181600301908054611d2290612763565b611d2d929190612020565b506004820181600401908054611d4290612763565b611d4d929190612020565b506005820181600501908054611d6290612763565b611d6d929190612020565b506006820181600601908054611d8290612763565b611d8d929190612020565b50600782015481600701559050506001600a6001600a80549050611db1919061285f565b81548110611dc257611dc1612801565b5b9060005260206000209060080201600082015481600001556001820181600101908054611dee90612763565b611df9929190612020565b506002820181600201908054611e0e90612763565b611e19929190612020565b506003820181600301908054611e2e90612763565b611e39929190612020565b506004820181600401908054611e4e90612763565b611e59929190612020565b506005820181600501908054611e6e90612763565b611e79929190612020565b506006820181600601908054611e8e90612763565b611e99929190612020565b50600782015481600701559050505b8080611eb390612893565b915050611b3a565b50600a805480611ece57611ecd6128dc565b5b6001900381819060005260206000209060080201600080820160009055600182016000611efb9190611fe0565b600282016000611f0b9190611fe0565b600382016000611f1b9190611fe0565b600482016000611f2b9190611fe0565b600582016000611f3b9190611fe0565b600682016000611f4b9190611fe0565b60078201600090555050905550565b828054611f6690612763565b90600052602060002090601f016020900481019282611f885760008555611fcf565b82601f10611fa157805160ff1916838001178555611fcf565b82800160010185558215611fcf579182015b82811115611fce578251825591602001919060010190611fb3565b5b509050611fdc91906120ad565b5090565b508054611fec90612763565b6000825580601f10611ffe575061201d565b601f01602090049060005260206000209081019061201c91906120ad565b5b50565b82805461202c90612763565b90600052602060002090601f01602090048101928261204e576000855561209c565b82601f1061205f578054855561209c565b8280016001018555821561209c57600052602060002091601f016020900482015b8281111561209b578254825591600101919060010190612080565b5b5090506120a991906120ad565b5090565b5b808211156120c65760008160009055506001016120ae565b5090565b6000604051905090565b600080fd5b600080fd5b6000819050919050565b6120f1816120de565b81146120fc57600080fd5b50565b60008135905061210e816120e8565b92915050565b600080fd5b600080fd5b6000601f19601f8301169050919050565b7f4e487b7100000000000000000000000000000000000000000000000000000000600052604160045260246000fd5b6121678261211e565b810181811067ffffffffffffffff821117156121865761218561212f565b5b80604052505050565b60006121996120ca565b90506121a5828261215e565b919050565b600067ffffffffffffffff8211156121c5576121c461212f565b5b6121ce8261211e565b9050602081019050919050565b82818337600083830152505050565b60006121fd6121f8846121aa565b61218f565b90508281526020810184848401111561221957612218612119565b5b6122248482856121db565b509392505050565b600082601f83011261224157612240612114565b5b81356122518482602086016121ea565b91505092915050565b600080600080600080600080610100898b03121561227b5761227a6120d4565b5b60006122898b828c016120ff565b985050602089013567ffffffffffffffff8111156122aa576122a96120d9565b5b6122b68b828c0161222c565b975050604089013567ffffffffffffffff8111156122d7576122d66120d9565b5b6122e38b828c0161222c565b965050606089013567ffffffffffffffff811115612304576123036120d9565b5b6123108b828c0161222c565b955050608089013567ffffffffffffffff811115612331576123306120d9565b5b61233d8b828c0161222c565b94505060a089013567ffffffffffffffff81111561235e5761235d6120d9565b5b61236a8b828c0161222c565b93505060c089013567ffffffffffffffff81111561238b5761238a6120d9565b5b6123978b828c0161222c565b92505060e06123a88b828c016120ff565b9150509295985092959890939650565b600081519050919050565b600082825260208201905092915050565b6000819050602082019050919050565b6123ed816120de565b82525050565b600081519050919050565b600082825260208201905092915050565b60005b8381101561242d578082015181840152602081019050612412565b8381111561243c576000848401525b50505050565b600061244d826123f3565b61245781856123fe565b935061246781856020860161240f565b6124708161211e565b840191505092915050565b60006101008301600083015161249460008601826123e4565b50602083015184820360208601526124ac8282612442565b915050604083015184820360408601526124c68282612442565b915050606083015184820360608601526124e08282612442565b915050608083015184820360808601526124fa8282612442565b91505060a083015184820360a08601526125148282612442565b91505060c083015184820360c086015261252e8282612442565b91505060e083015161254360e08601826123e4565b508091505092915050565b600061255a838361247b565b905092915050565b6000602082019050919050565b600061257a826123b8565b61258481856123c3565b935083602082028501612596856123d4565b8060005b858110156125d257848403895281516125b3858261254e565b94506125be83612562565b925060208a0199505060018101905061259a565b50829750879550505050505092915050565b600060208201905081810360008301526125fe818461256f565b905092915050565b60006020828403121561261c5761261b6120d4565b5b600061262a848285016120ff565b91505092915050565b61263c816120de565b82525050565b600082825260208201905092915050565b600061265e826123f3565b6126688185612642565b935061267881856020860161240f565b6126818161211e565b840191505092915050565b6000610100820190506126a2600083018b612633565b81810360208301526126b4818a612653565b905081810360408301526126c88189612653565b905081810360608301526126dc8188612653565b905081810360808301526126f08187612653565b905081810360a08301526127048186612653565b905081810360c08301526127188185612653565b905061272760e0830184612633565b9998505050505050505050565b7f4e487b7100000000000000000000000000000000000000000000000000000000600052602260045260246000fd5b6000600282049050600182168061277b57607f821691505b6020821081141561278f5761278e612734565b5b50919050565b7f4865616c7468205265636f7264206973206e6f7420617661696c61626c650000600082015250565b60006127cb601e83612642565b91506127d682612795565b602082019050919050565b600060208201905081810360008301526127fa816127be565b9050919050565b7f4e487b7100000000000000000000000000000000000000000000000000000000600052603260045260246000fd5b7f4e487b7100000000000000000000000000000000000000000000000000000000600052601160045260246000fd5b600061286a826120de565b9150612875836120de565b92508282101561288857612887612830565b5b828203905092915050565b600061289e826120de565b91507fffffffffffffffffffffffffffffffffffffffffffffffffffffffffffffffff8214156128d1576128d0612830565b5b600182019050919050565b7f4e487b7100000000000000000000000000000000000000000000000000000000600052603160045260246000fdfea2646970667358221220fe8e23858421987b4ce18163130f5d088418523c62c2891f0b8be88dceb0a62364736f6c634300080b0033",
  "linkReferences": {},
  "deployedLinkReferences": {}
}