{
  "_format": "hh-sol-artifact-1",
  "contractName": "blochealth",
  "sourceName": "contracts/blochealth.sol",
  "abi": [
    {
      "inputs": [],
      "stateMutability": "nonpayable",
      "type": "constructor"
    },
    {
      "inputs": [
        {
          "internalType": "uint256",
          "name": "_id",
          "type": "uint256"
        }
      ],
      "name": "deleteHealthRecord",
      "outputs": [],
      "stateMutability": "nonpayable",
      "type": "function"
    },
    {
      "inputs": [],
      "name": "getAllHealthRecords",
      "outputs": [
        {
          "components": [
            {
              "internalType": "uint256",
              "name": "id",
              "type": "uint256"
            },
            {
              "internalType": "string",
              "name": "doctorID",
              "type": "string"
            },
            {
              "internalType": "string",
              "name": "patientID",
              "type": "string"
            },
            {
              "internalType": "string",
              "name": "description",
              "type": "string"
            },
            {
              "internalType": "string",
              "name": "prescription",
              "type": "string"
            },
            {
              "internalType": "string",
              "name": "evidence",
              "type": "string"
            },
            {
              "internalType": "uint256",
              "name": "date",
              "type": "uint256"
            }
          ],
          "internalType": "struct blochealth.HealthRecord[]",
          "name": "",
          "type": "tuple[]"
        }
      ],
      "stateMutability": "view",
      "type": "function"
    },
    {
      "inputs": [
        {
          "internalType": "uint256",
          "name": "_id",
          "type": "uint256"
        }
      ],
      "name": "getHealthRecord",
      "outputs": [
        {
          "internalType": "string",
          "name": "",
          "type": "string"
        },
        {
          "internalType": "string",
          "name": "",
          "type": "string"
        },
        {
          "internalType": "string",
          "name": "",
          "type": "string"
        },
        {
          "internalType": "string",
          "name": "",
          "type": "string"
        },
        {
          "internalType": "string",
          "name": "",
          "type": "string"
        },
        {
          "internalType": "uint256",
          "name": "",
          "type": "uint256"
        }
      ],
      "stateMutability": "view",
      "type": "function"
    },
    {
      "inputs": [
        {
          "internalType": "uint256",
          "name": "",
          "type": "uint256"
        }
      ],
      "name": "healthRecordArray",
      "outputs": [
        {
          "internalType": "uint256",
          "name": "id",
          "type": "uint256"
        },
        {
          "internalType": "string",
          "name": "doctorID",
          "type": "string"
        },
        {
          "internalType": "string",
          "name": "patientID",
          "type": "string"
        },
        {
          "internalType": "string",
          "name": "description",
          "type": "string"
        },
        {
          "internalType": "string",
          "name": "prescription",
          "type": "string"
        },
        {
          "internalType": "string",
          "name": "evidence",
          "type": "string"
        },
        {
          "internalType": "uint256",
          "name": "date",
          "type": "uint256"
        }
      ],
      "stateMutability": "view",
      "type": "function"
    },
    {
      "inputs": [
        {
          "internalType": "uint256",
          "name": "",
          "type": "uint256"
        }
      ],
      "name": "healthRecords",
      "outputs": [
        {
          "internalType": "uint256",
          "name": "id",
          "type": "uint256"
        },
        {
          "internalType": "string",
          "name": "doctorID",
          "type": "string"
        },
        {
          "internalType": "string",
          "name": "patientID",
          "type": "string"
        },
        {
          "internalType": "string",
          "name": "description",
          "type": "string"
        },
        {
          "internalType": "string",
          "name": "prescription",
          "type": "string"
        },
        {
          "internalType": "string",
          "name": "evidence",
          "type": "string"
        },
        {
          "internalType": "uint256",
          "name": "date",
          "type": "uint256"
        }
      ],
      "stateMutability": "view",
      "type": "function"
    },
    {
      "inputs": [],
      "name": "removeMe",
      "outputs": [
        {
          "internalType": "uint256",
          "name": "id",
          "type": "uint256"
        },
        {
          "internalType": "string",
          "name": "doctorID",
          "type": "string"
        },
        {
          "internalType": "string",
          "name": "patientID",
          "type": "string"
        },
        {
          "internalType": "string",
          "name": "description",
          "type": "string"
        },
        {
          "internalType": "string",
          "name": "prescription",
          "type": "string"
        },
        {
          "internalType": "string",
          "name": "evidence",
          "type": "string"
        },
        {
          "internalType": "uint256",
          "name": "date",
          "type": "uint256"
        }
      ],
      "stateMutability": "view",
      "type": "function"
    },
    {
      "inputs": [
        {
          "internalType": "uint256",
          "name": "_id",
          "type": "uint256"
        },
        {
          "internalType": "string",
          "name": "_doctorID",
          "type": "string"
        },
        {
          "internalType": "string",
          "name": "_patientID",
          "type": "string"
        },
        {
          "internalType": "string",
          "name": "_description",
          "type": "string"
        },
        {
          "internalType": "string",
          "name": "_prescription",
          "type": "string"
        },
        {
          "internalType": "string",
          "name": "_evidence",
          "type": "string"
        },
        {
          "internalType": "uint256",
          "name": "_date",
          "type": "uint256"
        }
      ],
      "name": "setHealthRecord",
      "outputs": [],
      "stateMutability": "nonpayable",
      "type": "function"
    },
    {
      "inputs": [
        {
          "internalType": "uint256",
          "name": "_id",
          "type": "uint256"
        },
        {
          "internalType": "string",
          "name": "_doctorID",
          "type": "string"
        },
        {
          "internalType": "string",
          "name": "_patientID",
          "type": "string"
        },
        {
          "internalType": "string",
          "name": "_description",
          "type": "string"
        },
        {
          "internalType": "string",
          "name": "_prescription",
          "type": "string"
        },
        {
          "internalType": "string",
          "name": "_evidence",
          "type": "string"
        },
        {
          "internalType": "uint256",
          "name": "_date",
          "type": "uint256"
        }
      ],
      "name": "updateHealthRecord",
      "outputs": [],
      "stateMutability": "nonpayable",
      "type": "function"
    }
  ],
  "bytecode": "0x608060405234801561001057600080fd5b50336000806101000a81548173ffffffffffffffffffffffffffffffffffffffff021916908373ffffffffffffffffffffffffffffffffffffffff16021790555061256a806100606000396000f3fe608060405234801561001057600080fd5b50600436106100885760003560e01c8063b3eb9e0f1161005b578063b3eb9e0f14610120578063b665c0d314610156578063bf20a36d1461018c578063d5ff8001146101a857610088565b80631c1514791461008d578063839e8762146100ab5780639d08f4a9146100e0578063a8ba229614610104575b600080fd5b6100956101c4565b6040516100a29190611efc565b60405180910390f35b6100c560048036038101906100c09190611f5e565b610511565b6040516100d796959493929190611fe4565b60405180910390f35b6100e86108b8565b6040516100fb9796959493929190612068565b60405180910390f35b61011e6004803603810190610119919061222f565b610b90565b005b61013a60048036038101906101359190611f5e565b610e47565b60405161014d9796959493929190612068565b60405180910390f35b610170600480360381019061016b9190611f5e565b611141565b6040516101839796959493929190612068565b60405180910390f35b6101a660048036038101906101a1919061222f565b61142b565b005b6101c260048036038101906101bd9190611f5e565b611685565b005b60606009805480602002602001604051908101604052809291908181526020016000905b8282101561050857838290600052602060002090600702016040518060e0016040529081600082015481526020016001820180546102259061238c565b80601f01602080910402602001604051908101604052809291908181526020018280546102519061238c565b801561029e5780601f106102735761010080835404028352916020019161029e565b820191906000526020600020905b81548152906001019060200180831161028157829003601f168201915b505050505081526020016002820180546102b79061238c565b80601f01602080910402602001604051908101604052809291908181526020018280546102e39061238c565b80156103305780601f1061030557610100808354040283529160200191610330565b820191906000526020600020905b81548152906001019060200180831161031357829003601f168201915b505050505081526020016003820180546103499061238c565b80601f01602080910402602001604051908101604052809291908181526020018280546103759061238c565b80156103c25780601f10610397576101008083540402835291602001916103c2565b820191906000526020600020905b8154815290600101906020018083116103a557829003601f168201915b505050505081526020016004820180546103db9061238c565b80601f01602080910402602001604051908101604052809291908181526020018280546104079061238c565b80156104545780601f1061042957610100808354040283529160200191610454565b820191906000526020600020905b81548152906001019060200180831161043757829003601f168201915b5050505050815260200160058201805461046d9061238c565b80601f01602080910402602001604051908101604052809291908181526020018280546104999061238c565b80156104e65780601f106104bb576101008083540402835291602001916104e6565b820191906000526020600020905b8154815290600101906020018083116104c957829003601f168201915b50505050508152602001600682015481525050815260200190600101906101e8565b50505050905090565b606080606080606060008060086000898152602001908152602001600020600001541415610574576040517f08c379a000000000000000000000000000000000000000000000000000000000815260040161056b9061240a565b60405180910390fd5b6000600860008981526020019081526020016000206040518060e0016040529081600082015481526020016001820180546105ae9061238c565b80601f01602080910402602001604051908101604052809291908181526020018280546105da9061238c565b80156106275780601f106105fc57610100808354040283529160200191610627565b820191906000526020600020905b81548152906001019060200180831161060a57829003601f168201915b505050505081526020016002820180546106409061238c565b80601f016020809104026020016040519081016040528092919081815260200182805461066c9061238c565b80156106b95780601f1061068e576101008083540402835291602001916106b9565b820191906000526020600020905b81548152906001019060200180831161069c57829003601f168201915b505050505081526020016003820180546106d29061238c565b80601f01602080910402602001604051908101604052809291908181526020018280546106fe9061238c565b801561074b5780601f106107205761010080835404028352916020019161074b565b820191906000526020600020905b81548152906001019060200180831161072e57829003601f168201915b505050505081526020016004820180546107649061238c565b80601f01602080910402602001604051908101604052809291908181526020018280546107909061238c565b80156107dd5780601f106107b2576101008083540402835291602001916107dd565b820191906000526020600020905b8154815290600101906020018083116107c057829003601f168201915b505050505081526020016005820180546107f69061238c565b80601f01602080910402602001604051908101604052809291908181526020018280546108229061238c565b801561086f5780601f106108445761010080835404028352916020019161086f565b820191906000526020600020905b81548152906001019060200180831161085257829003601f168201915b50505050508152602001600682015481525050905080602001518160400151826060015183608001518460a001518560c001519650965096509650965096505091939550919395565b60018060000154908060010180546108cf9061238c565b80601f01602080910402602001604051908101604052809291908181526020018280546108fb9061238c565b80156109485780601f1061091d57610100808354040283529160200191610948565b820191906000526020600020905b81548152906001019060200180831161092b57829003601f168201915b50505050509080600201805461095d9061238c565b80601f01602080910402602001604051908101604052809291908181526020018280546109899061238c565b80156109d65780601f106109ab576101008083540402835291602001916109d6565b820191906000526020600020905b8154815290600101906020018083116109b957829003601f168201915b5050505050908060030180546109eb9061238c565b80601f0160208091040260200160405190810160405280929190818152602001828054610a179061238c565b8015610a645780601f10610a3957610100808354040283529160200191610a64565b820191906000526020600020905b815481529060010190602001808311610a4757829003601f168201915b505050505090806004018054610a799061238c565b80601f0160208091040260200160405190810160405280929190818152602001828054610aa59061238c565b8015610af25780601f10610ac757610100808354040283529160200191610af2565b820191906000526020600020905b815481529060010190602001808311610ad557829003601f168201915b505050505090806005018054610b079061238c565b80601f0160208091040260200160405190810160405280929190818152602001828054610b339061238c565b8015610b805780601f10610b5557610100808354040283529160200191610b80565b820191906000526020600020905b815481529060010190602001808311610b6357829003601f168201915b5050505050908060060154905087565b60008054906101000a900473ffffffffffffffffffffffffffffffffffffffff1673ffffffffffffffffffffffffffffffffffffffff163373ffffffffffffffffffffffffffffffffffffffff1614610be857600080fd5b600060086000898152602001908152602001600020600001541415610c42576040517f08c379a0000000000000000000000000000000000000000000000000000000008152600401610c399061240a565b60405180910390fd5b610c4b87611685565b6040518060e001604052808881526020018781526020018681526020018581526020018481526020018381526020018281525060086000898152602001908152602001600020600082015181600001556020820151816001019080519060200190610cb7929190611b60565b506040820151816002019080519060200190610cd4929190611b60565b506060820151816003019080519060200190610cf1929190611b60565b506080820151816004019080519060200190610d0e929190611b60565b5060a0820151816005019080519060200190610d2b929190611b60565b5060c0820151816006015590505060096040518060e00160405280898152602001888152602001878152602001868152602001858152602001848152602001838152509080600181540180825580915050600190039060005260206000209060070201600090919091909150600082015181600001556020820151816001019080519060200190610dbd929190611b60565b506040820151816002019080519060200190610dda929190611b60565b506060820151816003019080519060200190610df7929190611b60565b506080820151816004019080519060200190610e14929190611b60565b5060a0820151816005019080519060200190610e31929190611b60565b5060c08201518160060155505050505050505050565b60098181548110610e5757600080fd5b9060005260206000209060070201600091509050806000015490806001018054610e809061238c565b80601f0160208091040260200160405190810160405280929190818152602001828054610eac9061238c565b8015610ef95780601f10610ece57610100808354040283529160200191610ef9565b820191906000526020600020905b815481529060010190602001808311610edc57829003601f168201915b505050505090806002018054610f0e9061238c565b80601f0160208091040260200160405190810160405280929190818152602001828054610f3a9061238c565b8015610f875780601f10610f5c57610100808354040283529160200191610f87565b820191906000526020600020905b815481529060010190602001808311610f6a57829003601f168201915b505050505090806003018054610f9c9061238c565b80601f0160208091040260200160405190810160405280929190818152602001828054610fc89061238c565b80156110155780601f10610fea57610100808354040283529160200191611015565b820191906000526020600020905b815481529060010190602001808311610ff857829003601f168201915b50505050509080600401805461102a9061238c565b80601f01602080910402602001604051908101604052809291908181526020018280546110569061238c565b80156110a35780601f10611078576101008083540402835291602001916110a3565b820191906000526020600020905b81548152906001019060200180831161108657829003601f168201915b5050505050908060050180546110b89061238c565b80601f01602080910402602001604051908101604052809291908181526020018280546110e49061238c565b80156111315780601f1061110657610100808354040283529160200191611131565b820191906000526020600020905b81548152906001019060200180831161111457829003601f168201915b5050505050908060060154905087565b600860205280600052604060002060009150905080600001549080600101805461116a9061238c565b80601f01602080910402602001604051908101604052809291908181526020018280546111969061238c565b80156111e35780601f106111b8576101008083540402835291602001916111e3565b820191906000526020600020905b8154815290600101906020018083116111c657829003601f168201915b5050505050908060020180546111f89061238c565b80601f01602080910402602001604051908101604052809291908181526020018280546112249061238c565b80156112715780601f1061124657610100808354040283529160200191611271565b820191906000526020600020905b81548152906001019060200180831161125457829003601f168201915b5050505050908060030180546112869061238c565b80601f01602080910402602001604051908101604052809291908181526020018280546112b29061238c565b80156112ff5780601f106112d4576101008083540402835291602001916112ff565b820191906000526020600020905b8154815290600101906020018083116112e257829003601f168201915b5050505050908060040180546113149061238c565b80601f01602080910402602001604051908101604052809291908181526020018280546113409061238c565b801561138d5780601f106113625761010080835404028352916020019161138d565b820191906000526020600020905b81548152906001019060200180831161137057829003601f168201915b5050505050908060050180546113a29061238c565b80601f01602080910402602001604051908101604052809291908181526020018280546113ce9061238c565b801561141b5780601f106113f05761010080835404028352916020019161141b565b820191906000526020600020905b8154815290600101906020018083116113fe57829003601f168201915b5050505050908060060154905087565b60008054906101000a900473ffffffffffffffffffffffffffffffffffffffff1673ffffffffffffffffffffffffffffffffffffffff163373ffffffffffffffffffffffffffffffffffffffff161461148357600080fd5b60006040518060e0016040528089815260200188815260200187815260200186815260200185815260200184815260200183815250905080600860008a81526020019081526020016000206000820151816000015560208201518160010190805190602001906114f4929190611b60565b506040820151816002019080519060200190611511929190611b60565b50606082015181600301908051906020019061152e929190611b60565b50608082015181600401908051906020019061154b929190611b60565b5060a0820151816005019080519060200190611568929190611b60565b5060c0820151816006015590505060096040518060e001604052808a81526020018981526020018881526020018781526020018681526020018581526020018481525090806001815401808255809150506001900390600052602060002090600702016000909190919091506000820151816000015560208201518160010190805190602001906115fa929190611b60565b506040820151816002019080519060200190611617929190611b60565b506060820151816003019080519060200190611634929190611b60565b506080820151816004019080519060200190611651929190611b60565b5060a082015181600501908051906020019061166e929190611b60565b5060c0820151816006015550505050505050505050565b60008054906101000a900473ffffffffffffffffffffffffffffffffffffffff1673ffffffffffffffffffffffffffffffffffffffff163373ffffffffffffffffffffffffffffffffffffffff16146116dd57600080fd5b600060086000838152602001908152602001600020600001541415611737576040517f08c379a000000000000000000000000000000000000000000000000000000000815260040161172e9061240a565b60405180910390fd5b600860008281526020019081526020016000206000808201600090556001820160006117639190611be6565b6002820160006117739190611be6565b6003820160006117839190611be6565b6004820160006117939190611be6565b6005820160006117a39190611be6565b6006820160009055505060005b600980549050811015611ad15781600982815481106117d2576117d161242a565b5b9060005260206000209060070201600001541415611abe57600981815481106117fe576117fd61242a565b5b9060005260206000209060070201600160008201548160000155600182018160010190805461182c9061238c565b611837929190611c26565b50600282018160020190805461184c9061238c565b611857929190611c26565b50600382018160030190805461186c9061238c565b611877929190611c26565b50600482018160040190805461188c9061238c565b611897929190611c26565b5060058201816005019080546118ac9061238c565b6118b7929190611c26565b5060068201548160060155905050600960016009805490506118d99190612488565b815481106118ea576118e961242a565b5b90600052602060002090600702016009828154811061190c5761190b61242a565b5b90600052602060002090600702016000820154816000015560018201816001019080546119389061238c565b611943929190611c26565b5060028201816002019080546119589061238c565b611963929190611c26565b5060038201816003019080546119789061238c565b611983929190611c26565b5060048201816004019080546119989061238c565b6119a3929190611c26565b5060058201816005019080546119b89061238c565b6119c3929190611c26565b50600682015481600601559050506001600960016009805490506119e79190612488565b815481106119f8576119f761242a565b5b9060005260206000209060070201600082015481600001556001820181600101908054611a249061238c565b611a2f929190611c26565b506002820181600201908054611a449061238c565b611a4f929190611c26565b506003820181600301908054611a649061238c565b611a6f929190611c26565b506004820181600401908054611a849061238c565b611a8f929190611c26565b506005820181600501908054611aa49061238c565b611aaf929190611c26565b50600682015481600601559050505b8080611ac9906124bc565b9150506117b0565b506009805480611ae457611ae3612505565b5b6001900381819060005260206000209060070201600080820160009055600182016000611b119190611be6565b600282016000611b219190611be6565b600382016000611b319190611be6565b600482016000611b419190611be6565b600582016000611b519190611be6565b60068201600090555050905550565b828054611b6c9061238c565b90600052602060002090601f016020900481019282611b8e5760008555611bd5565b82601f10611ba757805160ff1916838001178555611bd5565b82800160010185558215611bd5579182015b82811115611bd4578251825591602001919060010190611bb9565b5b509050611be29190611cb3565b5090565b508054611bf29061238c565b6000825580601f10611c045750611c23565b601f016020900490600052602060002090810190611c229190611cb3565b5b50565b828054611c329061238c565b90600052602060002090601f016020900481019282611c545760008555611ca2565b82601f10611c655780548555611ca2565b82800160010185558215611ca257600052602060002091601f016020900482015b82811115611ca1578254825591600101919060010190611c86565b5b509050611caf9190611cb3565b5090565b5b80821115611ccc576000816000905550600101611cb4565b5090565b600081519050919050565b600082825260208201905092915050565b6000819050602082019050919050565b6000819050919050565b611d0f81611cfc565b82525050565b600081519050919050565b600082825260208201905092915050565b60005b83811015611d4f578082015181840152602081019050611d34565b83811115611d5e576000848401525b50505050565b6000601f19601f8301169050919050565b6000611d8082611d15565b611d8a8185611d20565b9350611d9a818560208601611d31565b611da381611d64565b840191505092915050565b600060e083016000830151611dc66000860182611d06565b5060208301518482036020860152611dde8282611d75565b91505060408301518482036040860152611df88282611d75565b91505060608301518482036060860152611e128282611d75565b91505060808301518482036080860152611e2c8282611d75565b91505060a083015184820360a0860152611e468282611d75565b91505060c0830151611e5b60c0860182611d06565b508091505092915050565b6000611e728383611dae565b905092915050565b6000602082019050919050565b6000611e9282611cd0565b611e9c8185611cdb565b935083602082028501611eae85611cec565b8060005b85811015611eea5784840389528151611ecb8582611e66565b9450611ed683611e7a565b925060208a01995050600181019050611eb2565b50829750879550505050505092915050565b60006020820190508181036000830152611f168184611e87565b905092915050565b6000604051905090565b600080fd5b600080fd5b611f3b81611cfc565b8114611f4657600080fd5b50565b600081359050611f5881611f32565b92915050565b600060208284031215611f7457611f73611f28565b5b6000611f8284828501611f49565b91505092915050565b600082825260208201905092915050565b6000611fa782611d15565b611fb18185611f8b565b9350611fc1818560208601611d31565b611fca81611d64565b840191505092915050565b611fde81611cfc565b82525050565b600060c0820190508181036000830152611ffe8189611f9c565b905081810360208301526120128188611f9c565b905081810360408301526120268187611f9c565b9050818103606083015261203a8186611f9c565b9050818103608083015261204e8185611f9c565b905061205d60a0830184611fd5565b979650505050505050565b600060e08201905061207d600083018a611fd5565b818103602083015261208f8189611f9c565b905081810360408301526120a38188611f9c565b905081810360608301526120b78187611f9c565b905081810360808301526120cb8186611f9c565b905081810360a08301526120df8185611f9c565b90506120ee60c0830184611fd5565b98975050505050505050565b600080fd5b600080fd5b7f4e487b7100000000000000000000000000000000000000000000000000000000600052604160045260246000fd5b61213c82611d64565b810181811067ffffffffffffffff8211171561215b5761215a612104565b5b80604052505050565b600061216e611f1e565b905061217a8282612133565b919050565b600067ffffffffffffffff82111561219a57612199612104565b5b6121a382611d64565b9050602081019050919050565b82818337600083830152505050565b60006121d26121cd8461217f565b612164565b9050828152602081018484840111156121ee576121ed6120ff565b5b6121f98482856121b0565b509392505050565b600082601f830112612216576122156120fa565b5b81356122268482602086016121bf565b91505092915050565b600080600080600080600060e0888a03121561224e5761224d611f28565b5b600061225c8a828b01611f49565b975050602088013567ffffffffffffffff81111561227d5761227c611f2d565b5b6122898a828b01612201565b965050604088013567ffffffffffffffff8111156122aa576122a9611f2d565b5b6122b68a828b01612201565b955050606088013567ffffffffffffffff8111156122d7576122d6611f2d565b5b6122e38a828b01612201565b945050608088013567ffffffffffffffff81111561230457612303611f2d565b5b6123108a828b01612201565b93505060a088013567ffffffffffffffff81111561233157612330611f2d565b5b61233d8a828b01612201565b92505060c061234e8a828b01611f49565b91505092959891949750929550565b7f4e487b7100000000000000000000000000000000000000000000000000000000600052602260045260246000fd5b600060028204905060018216806123a457607f821691505b602082108114156123b8576123b761235d565b5b50919050565b7f4865616c7468205265636f7264206973206e6f7420617661696c61626c650000600082015250565b60006123f4601e83611f8b565b91506123ff826123be565b602082019050919050565b60006020820190508181036000830152612423816123e7565b9050919050565b7f4e487b7100000000000000000000000000000000000000000000000000000000600052603260045260246000fd5b7f4e487b7100000000000000000000000000000000000000000000000000000000600052601160045260246000fd5b600061249382611cfc565b915061249e83611cfc565b9250828210156124b1576124b0612459565b5b828203905092915050565b60006124c782611cfc565b91507fffffffffffffffffffffffffffffffffffffffffffffffffffffffffffffffff8214156124fa576124f9612459565b5b600182019050919050565b7f4e487b7100000000000000000000000000000000000000000000000000000000600052603160045260246000fdfea2646970667358221220c6f9e74e47ccc2cfcb7dca47b2264e70b71cccdd536a614d79499b05e257f11864736f6c634300080b0033",
  "linkReferences": {},
  "deployedLinkReferences": {}
}